{
  "_format": "hh-sol-artifact-1",
  "contractName": "GiriGiriBashi",
  "sourceName": "contracts/GiriGiriBashi.sol",
  "abi": [
    {
      "inputs": [
        {
          "internalType": "address",
          "name": "_owner",
          "type": "address"
        },
        {
          "internalType": "address",
          "name": "_hashi",
          "type": "address"
        }
      ],
      "stateMutability": "nonpayable",
      "type": "constructor"
    },
    {
      "inputs": [
        {
          "internalType": "address",
          "name": "emitter",
          "type": "address"
        },
        {
          "internalType": "contract IOracleAdapter",
          "name": "adapter",
          "type": "address"
        }
      ],
      "name": "AdapterAlreadyEnabled",
      "type": "error"
    },
    {
      "inputs": [
        {
          "internalType": "address",
          "name": "emitter",
          "type": "address"
        },
        {
          "internalType": "contract IOracleAdapter",
          "name": "adapter",
          "type": "address"
        }
      ],
      "name": "AdapterNotEnabled",
      "type": "error"
    },
    {
      "inputs": [
        {
          "internalType": "address",
          "name": "emitter",
          "type": "address"
        },
        {
          "internalType": "contract Hashi",
          "name": "hashi",
          "type": "address"
        }
      ],
      "name": "DuplicateHashiAddress",
      "type": "error"
    },
    {
      "inputs": [
        {
          "internalType": "address",
          "name": "emitter",
          "type": "address"
        },
        {
          "internalType": "contract IOracleAdapter",
          "name": "adapterOne",
          "type": "address"
        },
        {
          "internalType": "contract IOracleAdapter",
          "name": "adapterTwo",
          "type": "address"
        }
      ],
      "name": "DuplicateOrOutOfOrderAdapters",
      "type": "error"
    },
    {
      "inputs": [
        {
          "internalType": "address",
          "name": "emitter",
          "type": "address"
        },
        {
          "internalType": "uint256",
          "name": "threshold",
          "type": "uint256"
        }
      ],
      "name": "DuplicateThreashold",
      "type": "error"
    },
    {
      "inputs": [
        {
          "internalType": "address",
          "name": "emitter",
          "type": "address"
        },
        {
          "internalType": "contract IOracleAdapter",
          "name": "adapter",
          "type": "address"
        }
      ],
      "name": "InvalidAdapter",
      "type": "error"
    },
    {
      "inputs": [
        {
          "internalType": "address",
          "name": "emitter",
          "type": "address"
        },
        {
          "internalType": "uint256",
          "name": "domainId",
          "type": "uint256"
        }
      ],
      "name": "NoAdaptersEnabled",
      "type": "error"
    },
    {
      "inputs": [
        {
          "internalType": "address",
          "name": "emitter",
          "type": "address"
        }
      ],
      "name": "NoAdaptersGiven",
      "type": "error"
    },
    {
      "inputs": [
        {
          "internalType": "address",
          "name": "emitter",
          "type": "address"
        }
      ],
      "name": "SetupAdaptersAlreadyCalled",
      "type": "error"
    },
    {
      "inputs": [
        {
          "internalType": "address",
          "name": "emitter",
          "type": "address"
        }
      ],
      "name": "ThresholdNotMet",
      "type": "error"
    },
    {
      "anonymous": false,
      "inputs": [
        {
          "indexed": true,
          "internalType": "address",
          "name": "emitter",
          "type": "address"
        },
        {
          "indexed": true,
          "internalType": "contract Hashi",
          "name": "hashi",
          "type": "address"
        }
      ],
      "name": "HashiSet",
      "type": "event"
    },
    {
      "anonymous": false,
      "inputs": [
        {
          "indexed": true,
          "internalType": "address",
          "name": "emitter",
          "type": "address"
        },
        {
          "indexed": true,
          "internalType": "address",
          "name": "owner",
          "type": "address"
        },
        {
          "indexed": true,
          "internalType": "contract Hashi",
          "name": "hashi",
          "type": "address"
        }
      ],
      "name": "Init",
      "type": "event"
    },
    {
      "anonymous": false,
      "inputs": [
        {
          "indexed": false,
          "internalType": "uint8",
          "name": "version",
          "type": "uint8"
        }
      ],
      "name": "Initialized",
      "type": "event"
    },
    {
      "anonymous": false,
      "inputs": [
        {
          "indexed": true,
          "internalType": "address",
          "name": "emitter",
          "type": "address"
        },
        {
          "indexed": true,
          "internalType": "uint256",
          "name": "domainId",
          "type": "uint256"
        },
        {
          "indexed": false,
          "internalType": "contract IOracleAdapter[]",
          "name": "adapters",
          "type": "address[]"
        }
      ],
      "name": "OracleAdaptersDisabled",
      "type": "event"
    },
    {
      "anonymous": false,
      "inputs": [
        {
          "indexed": true,
          "internalType": "address",
          "name": "emitter",
          "type": "address"
        },
        {
          "indexed": true,
          "internalType": "uint256",
          "name": "domainId",
          "type": "uint256"
        },
        {
          "indexed": false,
          "internalType": "contract IOracleAdapter[]",
          "name": "adapters",
          "type": "address[]"
        }
      ],
      "name": "OracleAdaptersEnabled",
      "type": "event"
    },
    {
      "anonymous": false,
      "inputs": [
        {
          "indexed": true,
          "internalType": "address",
          "name": "previousOwner",
          "type": "address"
        },
        {
          "indexed": true,
          "internalType": "address",
          "name": "newOwner",
          "type": "address"
        }
      ],
      "name": "OwnershipTransferred",
      "type": "event"
    },
    {
      "anonymous": false,
      "inputs": [
        {
          "indexed": true,
          "internalType": "address",
          "name": "emitter",
          "type": "address"
        },
        {
          "indexed": false,
          "internalType": "uint256",
          "name": "domainId",
          "type": "uint256"
        },
        {
          "indexed": false,
          "internalType": "uint256",
          "name": "threshold",
          "type": "uint256"
        }
      ],
      "name": "ThresholdSet",
      "type": "event"
    },
    {
      "inputs": [
        {
          "internalType": "uint256",
          "name": "",
          "type": "uint256"
        },
        {
          "internalType": "contract IOracleAdapter",
          "name": "",
          "type": "address"
        }
      ],
      "name": "adapters",
      "outputs": [
        {
          "internalType": "contract IOracleAdapter",
          "name": "previous",
          "type": "address"
        },
        {
          "internalType": "contract IOracleAdapter",
          "name": "next",
          "type": "address"
        }
      ],
      "stateMutability": "view",
      "type": "function"
    },
    {
      "inputs": [
        {
          "internalType": "uint256",
          "name": "domainId",
          "type": "uint256"
        },
        {
          "internalType": "contract IOracleAdapter[]",
          "name": "_adapters",
          "type": "address[]"
        }
      ],
      "name": "disableOracleAdapters",
      "outputs": [],
      "stateMutability": "nonpayable",
      "type": "function"
    },
    {
      "inputs": [
        {
          "internalType": "uint256",
          "name": "",
          "type": "uint256"
        }
      ],
      "name": "domains",
      "outputs": [
        {
          "internalType": "uint256",
          "name": "threshold",
          "type": "uint256"
        },
        {
          "internalType": "uint256",
          "name": "count",
          "type": "uint256"
        }
      ],
      "stateMutability": "view",
      "type": "function"
    },
    {
      "inputs": [
        {
          "internalType": "uint256",
          "name": "domainId",
          "type": "uint256"
        },
        {
          "internalType": "contract IOracleAdapter[]",
          "name": "_adapters",
          "type": "address[]"
        }
      ],
      "name": "enableOracleAdapters",
      "outputs": [],
      "stateMutability": "nonpayable",
      "type": "function"
    },
    {
      "inputs": [
        {
          "internalType": "uint256",
          "name": "domainId",
          "type": "uint256"
        },
        {
          "internalType": "uint256",
          "name": "id",
          "type": "uint256"
        },
        {
          "internalType": "contract IOracleAdapter[]",
          "name": "_adapters",
          "type": "address[]"
        }
      ],
      "name": "getHash",
      "outputs": [
        {
          "internalType": "bytes32",
          "name": "hash",
          "type": "bytes32"
        }
      ],
      "stateMutability": "view",
      "type": "function"
    },
    {
      "inputs": [
        {
          "internalType": "uint256",
          "name": "domainId",
          "type": "uint256"
        }
      ],
      "name": "getOracleAdapters",
      "outputs": [
        {
          "internalType": "contract IOracleAdapter[]",
          "name": "",
          "type": "address[]"
        }
      ],
      "stateMutability": "view",
      "type": "function"
    },
    {
      "inputs": [
        {
          "internalType": "uint256",
          "name": "domainId",
          "type": "uint256"
        }
      ],
      "name": "getThresholdAndCount",
      "outputs": [
        {
          "internalType": "uint256",
          "name": "threshold",
          "type": "uint256"
        },
        {
          "internalType": "uint256",
          "name": "count",
          "type": "uint256"
        }
      ],
      "stateMutability": "view",
      "type": "function"
    },
    {
      "inputs": [
        {
          "internalType": "uint256",
          "name": "domainId",
          "type": "uint256"
        },
        {
          "internalType": "uint256",
          "name": "id",
          "type": "uint256"
        }
      ],
      "name": "getUnanimousHash",
      "outputs": [
        {
          "internalType": "bytes32",
          "name": "hash",
          "type": "bytes32"
        }
      ],
      "stateMutability": "view",
      "type": "function"
    },
    {
      "inputs": [],
      "name": "hashi",
      "outputs": [
        {
          "internalType": "contract Hashi",
          "name": "",
          "type": "address"
        }
      ],
      "stateMutability": "view",
      "type": "function"
    },
    {
      "inputs": [
        {
          "internalType": "bytes",
          "name": "initParams",
          "type": "bytes"
        }
      ],
      "name": "init",
      "outputs": [],
      "stateMutability": "nonpayable",
      "type": "function"
    },
    {
      "inputs": [],
      "name": "owner",
      "outputs": [
        {
          "internalType": "address",
          "name": "",
          "type": "address"
        }
      ],
      "stateMutability": "view",
      "type": "function"
    },
    {
      "inputs": [],
      "name": "renounceOwnership",
      "outputs": [],
      "stateMutability": "nonpayable",
      "type": "function"
    },
    {
      "inputs": [
        {
          "internalType": "contract Hashi",
          "name": "_hashi",
          "type": "address"
        }
      ],
      "name": "setHashi",
      "outputs": [],
      "stateMutability": "nonpayable",
      "type": "function"
    },
    {
      "inputs": [
        {
          "internalType": "uint256",
          "name": "domainId",
          "type": "uint256"
        },
        {
          "internalType": "uint256",
          "name": "threshold",
          "type": "uint256"
        }
      ],
      "name": "setThreshold",
      "outputs": [],
      "stateMutability": "nonpayable",
      "type": "function"
    },
    {
      "inputs": [
        {
          "internalType": "address",
          "name": "newOwner",
          "type": "address"
        }
      ],
      "name": "transferOwnership",
      "outputs": [],
      "stateMutability": "nonpayable",
      "type": "function"
    }
  ],
  "bytecode": "0x60806040523480156200001157600080fd5b5060405162001977380380620019778339810160408190526200003491620004cf565b604080516001600160a01b03848116602083015283168183015281518082038301815260609091019091526200006a8162000073565b5050506200050e565b600054610100900460ff1615808015620000945750600054600160ff909116105b80620000c45750620000b1306200021760201b62000eae1760201c565b158015620000c4575060005460ff166001145b6200012d5760405162461bcd60e51b815260206004820152602e60248201527f496e697469616c697a61626c653a20636f6e747261637420697320616c72656160448201526d191e481a5b9a5d1a585b1a5e995960921b60648201526084015b60405180910390fd5b6000805460ff19166001179055801562000151576000805461ff0019166101001790555b600080838060200190518101906200016a9190620004cf565b90925090506200017962000226565b62000184816200028e565b6200018f8262000325565b6040516001600160a01b03808316919084169030907f30a8e4128bc3fa00e06603623cf0308c7f04b2260d5131bde0b4d17b797d746b90600090a45050801562000213576000805461ff0019169055604051600181527f7f26b83ff96e1f2b6a682f133852f6798a09c465da95921460cefb38474024989060200160405180910390a15b5050565b6001600160a01b03163b151590565b600054610100900460ff16620002825760405162461bcd60e51b815260206004820152602b60248201526000805160206200195783398151915260448201526a6e697469616c697a696e6760a81b606482015260840162000124565b6200028c620003a4565b565b620002986200040b565b6065546001600160a01b03808316911603620002d95760405163c49d59c960e01b81523060048201526001600160a01b038216602482015260440162000124565b606580546001600160a01b0319166001600160a01b03831690811790915560405130907f87a09815fee184d0f53f70d282b40c1eae57fae51c2547190bfee316dd79331490600090a350565b6200032f6200040b565b6001600160a01b038116620003965760405162461bcd60e51b815260206004820152602660248201527f4f776e61626c653a206e6577206f776e657220697320746865207a65726f206160448201526564647265737360d01b606482015260840162000124565b620003a18162000467565b50565b600054610100900460ff16620004005760405162461bcd60e51b815260206004820152602b60248201526000805160206200195783398151915260448201526a6e697469616c697a696e6760a81b606482015260840162000124565b6200028c3362000467565b6033546001600160a01b031633146200028c5760405162461bcd60e51b815260206004820181905260248201527f4f776e61626c653a2063616c6c6572206973206e6f7420746865206f776e6572604482015260640162000124565b603380546001600160a01b038381166001600160a01b0319831681179093556040519116919082907f8be0079c531659141344cd1fd0a4f28419497f9722a3daafe3b4186f6b6457e090600090a35050565b6001600160a01b0381168114620003a157600080fd5b60008060408385031215620004e357600080fd5b8251620004f081620004b9565b60208401519092506200050381620004b9565b809150509250929050565b611439806200051e6000396000f3fe608060405234801561001057600080fd5b50600436106100f55760003560e01c80636c1c76df11610097578063c4bdd98211610066578063c4bdd9821461025c578063ead227541461027c578063ec2cf2d51461028f578063f2fde38b146102a257600080fd5b80636c1c76df14610209578063715018a61461021c5780638da5cb5b14610224578063b9c362091461024957600080fd5b80634d6c9cc2116100d35780634d6c9cc21461015d5780634ddf47d4146101bc57806366cf8fab146101cf57806367e2120e146101f657600080fd5b8063121d0ca3146100fa578063142236451461010f57806314d3383014610135575b600080fd5b61010d610108366004611135565b6102b5565b005b61012261011d36600461117c565b6104fe565b6040519081526020015b60405180910390f35b61014861014336600461119e565b6105e9565b6040805192835260208301919091520161012c565b61019c61016b3660046111b7565b6066602090815260009283526040808420909152908252902080546001909101546001600160a01b03918216911682565b604080516001600160a01b0393841681529290911660208301520161012c565b61010d6101ca3660046111e7565b610611565b6101486101dd36600461119e565b6067602052600090815260409020805460019091015482565b61010d61020436600461127c565b61079c565b61010d610217366004611135565b61082f565b61010d610a72565b6033546001600160a01b03165b6040516001600160a01b03909116815260200161012c565b61010d61025736600461117c565b610a86565b61026f61026a36600461119e565b610b30565b60405161012c91906112e4565b61012261028a3660046112f7565b610c28565b606554610231906001600160a01b031681565b61010d6102b036600461127c565b610e1e565b6102bd610ebd565b60008281526067602052604081206001015490036102fc57604051630c0be41d60e41b8152306004820152602481018390526044015b60405180910390fd5b805160000361032057604051639750033760e01b81523060048201526024016102f3565b60005b81518110156104b757600082828151811061034057610340611347565b6020026020010151905060006001600160a01b0316816001600160a01b0316148061037457506001600160a01b0381166001145b156103a3576040516362d3dd3960e11b81523060048201526001600160a01b03821660248201526044016102f3565b60008481526066602090815260408083206001600160a01b038086168552908352928190208151808301909252805484168252600101549092169082018190526104115760405163507a63c160e11b81523060048201526001600160a01b03831660248201526044016102f3565b602081810151825160008881526066845260408082206001600160a01b0380861680855291875282842080548287166001600160a01b031991821681179092559085528385206001908101805483169094179093559089168452828420808301805483169055805490911690558a8352606790955281209093018054929391929161049b83611373565b91905055505050505080806104af9061138a565b915050610323565b5081306001600160a01b03167f29df4ceea7eecebb16cf6790ed2472192dc77ce05be797c7d53f641a1545baa4836040516104f291906112e4565b60405180910390a35050565b60008061050a84610b30565b9050600080610518866105e9565b915091508060000361054657604051630c0be41d60e41b8152306004820152602481018790526044016102f3565b818351101561056a5760405163243a067360e11b81523060048201526024016102f3565b606554604051633ab489d560e21b81526001600160a01b039091169063ead227549061059e908990899088906004016113a3565b602060405180830381865afa1580156105bb573d6000803e3d6000fd5b505050506040513d601f19601f820116820180604052508101906105df91906113cb565b9695505050505050565b60008181526067602052604081208054600190910154909182900361060c578091505b915091565b600054610100900460ff16158080156106315750600054600160ff909116105b8061064b5750303b15801561064b575060005460ff166001145b6106bd5760405162461bcd60e51b815260206004820152602e60248201527f496e697469616c697a61626c653a20636f6e747261637420697320616c72656160448201527f647920696e697469616c697a656400000000000000000000000000000000000060648201526084016102f3565b6000805460ff1916600117905580156106e0576000805461ff0019166101001790555b600080838060200190518101906106f791906113e4565b91509150610703610f17565b61070c8161079c565b61071582610e1e565b6040516001600160a01b03808316919084169030907f30a8e4128bc3fa00e06603623cf0308c7f04b2260d5131bde0b4d17b797d746b90600090a450508015610798576000805461ff0019169055604051600181527f7f26b83ff96e1f2b6a682f133852f6798a09c465da95921460cefb38474024989060200160405180910390a15b5050565b6107a4610ebd565b6065546001600160a01b038083169116036107e35760405163c49d59c960e01b81523060048201526001600160a01b03821660248201526044016102f3565b606580546001600160a01b0319166001600160a01b03831690811790915560405130907f87a09815fee184d0f53f70d282b40c1eae57fae51c2547190bfee316dd79331490600090a350565b610837610ebd565b60008281526066602090815260408083206001808552925290912001546001600160a01b031661089b5760008281526066602090815260408083206001808552925290912080820180546001600160a01b0319908116841790915581541690911790555b80516000036108bf57604051639750033760e01b81523060048201526024016102f3565b60005b8151811015610a375760008282815181106108df576108df611347565b6020026020010151905060006001600160a01b0316816001600160a01b0316148061091357506001600160a01b0381166001145b15610942576040516362d3dd3960e11b81523060048201526001600160a01b03821660248201526044016102f3565b60008481526066602090815260408083206001600160a01b0385811685529252909120600101541615610999576040516372aa283f60e11b81523060048201526001600160a01b03821660248201526044016102f3565b6000848152606660209081526040808320600180855290835281842080546001600160a01b03908116808752848720840180549289166001600160a01b0319938416811790915580885285882080548416831781558454841690911790935591830180549091168317905588855260679093529083200180549192610a1d8361138a565b919050555050508080610a2f9061138a565b9150506108c2565b5081306001600160a01b03167f9e44aa529a48417b6d3c855e91b60b3b50a93e5c40d2e500211a4c9f81b13991836040516104f291906112e4565b610a7a610ebd565b610a846000610f8a565b565b610a8e610ebd565b600082815260676020526040902054819003610adf576040517fff016175000000000000000000000000000000000000000000000000000000008152306004820152602481018290526044016102f3565b600082815260676020908152604091829020839055815184815290810183905230917fed4e7b6d1951b75b13e101295f8473d6492319d89608bbfbfdbc643d96246f7d910160405180910390a25050565b6000818152606760205260408120600101546060919067ffffffffffffffff811115610b5e57610b5e611050565b604051908082528060200260200182016040528015610b87578160200160208202803683370190505b50600084815260666020908152604080832060018085529252822001549192506001600160a01b03909116905b8251811015610c1f5781838281518110610bd057610bd0611347565b6001600160a01b03928316602091820292909201810191909152600087815260668252604080822095841682529490915292909220600101549091169080610c178161138a565b915050610bb4565b50909392505050565b6000806000610c36866105e9565b915091508351600003610c5e57604051639750033760e01b81523060048201526024016102f3565b80600003610c8857604051630c0be41d60e41b8152306004820152602481018790526044016102f3565b8184511015610cac5760405163243a067360e11b81523060048201526024016102f3565b60005b8451811015610de9576000858281518110610ccc57610ccc611347565b60200260200101519050600082118015610d1b575085610ced600184611413565b81518110610cfd57610cfd611347565b60200260200101516001600160a01b0316816001600160a01b031611155b15610d8057308187610d2e600186611413565b81518110610d3e57610d3e611347565b602002602001015160405163fbb2c69d60e01b81526004016102f3939291906001600160a01b0393841681529183166020830152909116604082015260600190565b60008881526066602090815260408083206001600160a01b03858116855292529091206001015416610dd6576040516362d3dd3960e11b81523060048201526001600160a01b03821660248201526044016102f3565b5080610de18161138a565b915050610caf565b50606554604051633ab489d560e21b81526001600160a01b039091169063ead227549061059e908990899089906004016113a3565b610e26610ebd565b6001600160a01b038116610ea25760405162461bcd60e51b815260206004820152602660248201527f4f776e61626c653a206e6577206f776e657220697320746865207a65726f206160448201527f646472657373000000000000000000000000000000000000000000000000000060648201526084016102f3565b610eab81610f8a565b50565b6001600160a01b03163b151590565b6033546001600160a01b03163314610a845760405162461bcd60e51b815260206004820181905260248201527f4f776e61626c653a2063616c6c6572206973206e6f7420746865206f776e657260448201526064016102f3565b600054610100900460ff16610f825760405162461bcd60e51b815260206004820152602b60248201527f496e697469616c697a61626c653a20636f6e7472616374206973206e6f74206960448201526a6e697469616c697a696e6760a81b60648201526084016102f3565b610a84610fdc565b603380546001600160a01b038381166001600160a01b0319831681179093556040519116919082907f8be0079c531659141344cd1fd0a4f28419497f9722a3daafe3b4186f6b6457e090600090a35050565b600054610100900460ff166110475760405162461bcd60e51b815260206004820152602b60248201527f496e697469616c697a61626c653a20636f6e7472616374206973206e6f74206960448201526a6e697469616c697a696e6760a81b60648201526084016102f3565b610a8433610f8a565b634e487b7160e01b600052604160045260246000fd5b604051601f8201601f1916810167ffffffffffffffff8111828210171561108f5761108f611050565b604052919050565b6001600160a01b0381168114610eab57600080fd5b600082601f8301126110bd57600080fd5b8135602067ffffffffffffffff8211156110d9576110d9611050565b8160051b6110e8828201611066565b928352848101820192828101908785111561110257600080fd5b83870192505b8483101561112a57823561111b81611097565b82529183019190830190611108565b979650505050505050565b6000806040838503121561114857600080fd5b82359150602083013567ffffffffffffffff81111561116657600080fd5b611172858286016110ac565b9150509250929050565b6000806040838503121561118f57600080fd5b50508035926020909101359150565b6000602082840312156111b057600080fd5b5035919050565b600080604083850312156111ca57600080fd5b8235915060208301356111dc81611097565b809150509250929050565b600060208083850312156111fa57600080fd5b823567ffffffffffffffff8082111561121257600080fd5b818501915085601f83011261122657600080fd5b81358181111561123857611238611050565b61124a601f8201601f19168501611066565b9150808252868482850101111561126057600080fd5b8084840185840137600090820190930192909252509392505050565b60006020828403121561128e57600080fd5b813561129981611097565b9392505050565b600081518084526020808501945080840160005b838110156112d95781516001600160a01b0316875295820195908201906001016112b4565b509495945050505050565b60208152600061129960208301846112a0565b60008060006060848603121561130c57600080fd5b8335925060208401359150604084013567ffffffffffffffff81111561133157600080fd5b61133d868287016110ac565b9150509250925092565b634e487b7160e01b600052603260045260246000fd5b634e487b7160e01b600052601160045260246000fd5b6000816113825761138261135d565b506000190190565b60006001820161139c5761139c61135d565b5060010190565b8381528260208201526060604082015260006113c260608301846112a0565b95945050505050565b6000602082840312156113dd57600080fd5b5051919050565b600080604083850312156113f757600080fd5b825161140281611097565b60208401519092506111dc81611097565b818103818111156114265761142661135d565b9291505056fea164736f6c6343000811000a496e697469616c697a61626c653a20636f6e7472616374206973206e6f742069",
  "linkReferences": {},
  "deployedLinkReferences": {}
}